:0600000000008831002819
:0800080083018A012000770842
:10001000A0007808A1007908A2007A08A3000B1EAE
:1000200013288B182E288B1E17280B1930288501B2
:1000300091308400001D1E2811193228850191304D
:100040008400801E2528911A34282008F7002108F2
:10005000F8002208F9002308FA0009008031652819
:100060008031362880313C2880317728A40A031952
:10007000A50A0B11803125282808EA3C031C4A28D0
:10008000031D462827085F3C031C4A28A70A0319BA
:10009000A80A62282908023C031C61282808E93CB8
:1000A00003186128FF3A031D592827085F3C0318ED
:1000B0006128A90AA801A701181097019601181430
:1000C000622818101111803125280130B900280844
:1000D000AB002708AA002908AC00A801A701A901C4
:1000E00018109701960118148B1080312528911E45
:1000F0007728230019082000E2006208613C031DF4
:1001000084280130A60099286208623C031D9928C2
:10011000A501A401A801A701A901AB01AA01AC0195
:10012000B001AF01AE01AD01B401B301B201B10143
:100130009501911280312528F232733A6139741099
:10014000F61B3200C31EA012353675102010A01207
:10015000B13AED346E00203085002930840000086B
:100160000319C0280330F800F701F70BB528F80B86
:10017000B4283C30F700F70BBB28BE28800BB22810
:10018000080057088039031DCB2822000D132100D9
:100190000D13CF28200022000D1721000D13200081
:1001A00057084039031DDA2822008D1321008D13D2
:1001B000DE28200022008D1721008D132000570813
:1001C0002039031DE92822008D1121008D11ED2811
:1001D000200022008D1521008D11200057081039B4
:1001E000031DF82822008C1021008C10FC28200010
:1001F00022008C1421008C102000D808031D062931
:1002000021000D1222000D160A29200021000D12D6
:1002100022000D12000021008D1022008D141029E3
:1002200021008D1022008D10200008004808D70002
:100230000130D800C120480EC900F030C905490876
:10024000D7000130D800C1200230C900AB2008001F
:10025000053066000F30C900AB203030D7000130C8
:10026000D800C1200530C900AB203030D7000130A4
:10027000D800C1200130C900AB203030D700013098
:10028000D800C1200130C900AB202030D700013098
:10029000D800C1200130C900AB202E30C800162183
:1002A0000830C80016210D30C80016210630C800DD
:1002B00016210230C8001621883135280130C800C7
:1002C00016210F30C900AB2008005508D700D8010F
:1002D000C120550ED600F030D6055608D700D801FB
:1002E000C1202930F700F70B7329000008000B0824
:1002F000C8008B1323009517151400000000130885
:100300007F390319B8292000C900230011082000F3
:10031000CA00230012082000CB004908D50065213F
:100320004A082300910020004B08230092009517F3
:10033000151400000000130D140D7F390319B8299E
:100340002000C900230011082000CA002300120861
:100350002000CB004908D50065214A082300910000
:1003600020004B0823009200910A0319920A7B296E
:100370002000C81B8B1788317C2880308318D10659
:10038000D601D7014D08D5005108D5064C080319F0
:10039000B02AD400F70050080319B92AD40203196F
:1003A000542A031C112A5108DA00DA175208D9001E
:1003B0005308D800D7010310DA0CD90CD80CD70C8D
:1003C000D40BDA29D51FE7295614CD2A561054101C
:1003D0005616203085002F308400E22A5612D51B95
:1003E000FB29541C062ADA0CD90CD80CD70CF70AB6
:1003F0000319C82A062ADA1B092A0310D70DD80DBB
:10040000D90DDA0DF7030319C82AFB295617752AE7
:1004100056134D08D500D51F0F2ADA17C12ADA1353
:10042000C12A5008D400F7004C08D4024D08DA0065
:10043000DA174E08D9004F08D800D7010310DA0C9C
:10044000D90CD80CD70CD40B1D2AD51F2A2AD614A8
:10045000CD2AD6105410D6162030850033308400B3
:10046000E22AD612D51B3E2A541C492ADA0CD90C92
:10047000D80CD70CF70A0319C82A492ADA1B4C2AC8
:100480000310D70DD80DD90DDA0DF7030319C82ABB
:100490003E2AD617752AD6135108D500D51F522AE1
:1004A000DA17C12ADA13C12A5108DA00DA1752081A
:1004B000D9005308D800D51F612ADA135615CD2A62
:1004C0005611D7015410203085002F308400E22AC5
:1004D000D51B8B2A4D08D500541C752ADA0CD90C73
:1004E000D80CD70CF70A0319C82AD71F862AD80AAE
:1004F000031D862AD90A031D862ADA0A031D862AC5
:10050000DA0CD90CD80CF70A0319C82A561B082A8A
:10051000D61B4B2AAA2A8030DA06DA1F932ACD2A64
:100520005108D500A02A4D08D500DA08031DA02ADD
:10053000D908031DA02AD808031DA02AF701C12A43
:10054000DA1BAA2A0310D70DD80DD90DDA0DF70B37
:10055000A02AC82AD51FAE2ADA17C12ADA13C12A5F
:100560005008F7005108DA005208D9005308D800A3
:10057000C12A4C08F7004D08DA004E08D9004F0890
:10058000D8005A08F8005908F9005808FA00FE2A5D
:10059000F701F801F901FA01FE2AD701D809D909B2
:1005A000DA09D709D70A031DDB2AD80A031DDB2A7B
:1005B000D90A0319DA0A5618E629D618292A56192B
:1005C000602A902A0008D807031CEC2AD90A031DC8
:1005D000EC2ADA0A031954141100D907031CF32A70
:1005E000DA0A031954141100801F803ADA0703183D
:1005F0005414561AEE29D61A312A682A08008E3069
:10060000F7004D08F8004C08F900FA01F808031D3E
:10061000132B7908F800F9010830F702F808031DD8
:10062000132BF7011B2B0310F81B1A2BF90DF80DD8
:10063000F703132BF8130800550803198C2BDD0062
:10064000590803198C2BDD0703182D2B7F30DD0291
:10065000031C8C2B03198C2B312B8130DD070318E5
:100660008C2B5D08F700F801F901FA015608E1004A
:10067000E1175708E0005808DF001830DD00DE0100
:100680005F1C5A2B5C08FA07031C4C2BF90A031D4C
:100690004C2BF80A0319DE175B08F907031C532BD0
:1006A000F80A0319DE175A08D700D7175708F807B2
:1006B0000318DE17DE0DF80CF90CFA0CE10CE00C57
:1006C000DF0C0310DD0B3F2B0130F70703188C2BD9
:1006D000F81B712BE10DFA0DF90DF80DF703031955
:1006E0008C2BE11F822BFA0A031D822BF90A031DB2
:1006F000822BF80A031D822BF80CF90CFA0CF70A6E
:1007000003198C2B5608DE005A08DE06DE1F8A2BE2
:10071000F817902BF813902BF701F801F901FA0163
:10072000080048080319562CD4004C080319562C0D
:10073000D402031CA02B7F30D4070318562CA62B01
:100740008130D402031C562C0319562C5408F70090
:10075000F801F901FA01D3014908D200D2174A0879
:10076000D1004B08D0001930D4004F08D002031834
:10077000C92B0130D1020318C92BD2020318C92B8F
:10078000D3020318C92BD30AD20AD10A4F08D007C3
:10079000FB2B4E08D1020318E42B0130D2020318C0
:1007A000E42BD3020318E42BD30AD20A4E08D10754
:1007B0004F08D007031CFB2BD10A031DFB2BD20AC9
:1007C000031DFB2BD30AFB2B4D088038D2020318E4
:1007D000FA2B0130D3020318FA2BD30A4D088038C4
:1007E000D2074E08D107031CD82BD20A031DD82BE1
:1007F000D30AD82B7A14D40BFE2B092C0310D00D5E
:10080000D10DD20DD30D0310FA0DF90DF80DD50D44
:10081000B52B551C112C0310F80CF90CFA0CD50C47
:10082000142CF7030319562CD51B3D2C0310D00DA7
:10083000D10DD20DD30D4F08D0020318292C013051
:10084000D1020318292CD2020318292CD302031C2D
:100850004C2C4E08D1020318342C0130D20203185C
:10086000342CD302031C4C2C4D088038D2020318C0
:100870003D2C0130D302031C4C2CFA0A031D4C2CD6
:10088000F90A031D4C2CF80A031D4C2CF70A031916
:10089000562CF80CF90CFA0C4908D4004D08D40673
:1008A000D41F542CF8175A2CF8135A2CF701F801BE
:1008B000F901FA0188317B2A4908D0004D08D00699
:1008C000D01F672C03110310C91B03149A2C49086D
:1008D000D0004C08D1004808D1020319752CD01F54
:1008E0009A2C0308013A83009A2C4D08D10049083C
:1008F000D1020319812CD01F9A2C0308013A8300DE
:100900009A2C4E08D1004A08D10203198D2CD01F11
:100910009A2C0308013A83009A2C4F08D1004B0807
:10092000D1020319992CD01F9A2C0308013A830095
:100930009A2C031008005508B63CD500FA01560859
:10094000D900D6170310D60CD70CD80CFA0CF90C1A
:10095000F80CF70CD50BA22CD91FB92CF709F80904
:10096000F909FA09F70A0319F80A0319F90A031928
:10097000FA0A08008318BF2C85015D308400F70156
:10098000F801F901FA01DD01DE01DF01E0015C0897
:100990005B045A0459040319FD2C2030E1000310B4
:1009A000D50DD60DD70DD80DDD0DDE0DDF0DE00D0B
:1009B0005C086002031DE62C5B085F02031DE62C49
:1009C0005A085E02031DE62C59085D02031CF72C31
:1009D0005908DD025A08031C5A0FDE025B08031C8B
:1009E0005B0FDF025C08031C5C0FE0020314F70DD1
:1009F000F80DF90DFA0DE10BCF2C5D0880005E08B3
:100A0000813F5F08823F6008833F08000408CD00F3
:100A10004C08CF000319252D4B08D8004A08D700F1
:100A20004908D6004808D500DC01DB012030DA0097
:100A30008230D9001C237A08CB007908CA007808D4
:100A4000C9007708C800CF0B0C2D4B08D8004A0806
:100A5000D7004908D6004808D5009B247A08CB0067
:100A60007908CA007808C9007708C800CB1F452D4F
:100A7000CD03CD16C809C909CA09CB09C80A03198B
:100A8000C90A0319CA0A0319CB0A3B30D4009A30A9
:100A9000D300CA30D200D1010A30CF004C0803196C
:100AA000CD0A831420308500283084004B08D800FC
:100AB0004A08D7004908D6004808D5005408DC0089
:100AC0005308DB005208DA005108D900BA2478082C
:100AD000F708031D7E2D4C0A4F0203197E2D4D0889
:100AE0000319802D0F394F020319782D0318BC2DDF
:100AF000CD1BBC2D4D1B802D2030B52D2030CD05BC
:100B0000CD1E912DCD124C08031DCD037708CD00CD
:100B10002D30111E892D23009A0020004D08F7006A
:100B2000CD014C084F02031DA22D7708CD002E30B9
:100B3000111E982D23009A0020004D08F700203048
:100B4000CD0500303030CD1EB52DCD124C08031D23
:100B5000CD037708CD002D30111EAC2D23009A0057
:100B600020004D08F700CD013030F7077708111E3F
:100B7000B72D23009A00200083105408D800530892
:100B8000D7005208D6005108D500DC01DB01DA019C
:100B90000A30D900BA247A08D4007908D30078083A
:100BA000D2007708D100CF0B512D8831A32C050836
:100BB000D0000408CF00490EF038CB00CB07E23E4E
:100BC000CC00323ECE0049080F39CC07CC07CE0707
:100BD000E93ECD00CD07CD07480E0F39CD07CE0732
:100BE000CD0DCE0DCE09CE0D48080F39CE07CB0D59
:100BF0000730CA000A30CE07CD03031CFB2DCD07FA
:100C0000CC03031CFF2DCC07CB03031C032ECB0707
:100C1000CA03031C072E85014A30840007304F05A4
:100C20004F1384074E30040203194F170008F700D2
:100C3000031D222E4F1B222E4F1A312ECF19222E8A
:100C40002030252ECF154F123030F7070508C90088
:100C50000408C8007708D5006521490885004808C0
:100C6000840001314F1F122E08000B08C9008B139E
:100C7000230095171514000000000318612E1308B7
:100C80007F392000CA00230011082000CB00230078
:100C900012082000CC004A08D50065214B0823002B
:100CA000910020004C0823009200951715140000B5
:100CB00000002000C80B5D2E5F2E2300612E7F2ECA
:100CC0002300130D140D7F392000CA0023001108E2
:100CD0002000CB00230012082000CC004A08D500D9
:100CE00065214B082300910020004C08230092004E
:100CF000910A0319920A03102000C80B382EC91B51
:100D00008B178831392D4B08F8014A0203188B2EB6
:100D10004A08F700972EF7010830CC00CA0DF70DEE
:100D20004B0877020318F700F80DCC0B8E2E080045
:100D300078084808CA006430CB0083267708C800CA
:100D400078083030031DAB2EC91CB22EC919B22E43
:100D5000491A2030AE2EC91149124914F8077808F3
:100D6000D50065214808CA000A30CB0083267708E1
:100D7000C80078083030031DC32EC919C72E491C7E
:100D8000C72E491A2030F8077808D5006521303081
:100D9000C8074808D50065218831402D0408CD00DA
:100DA0004C08CF000319ED2E4B08D8004A08D70095
:100DB0004908D6004808D500DC01DB012030DA0004
:100DC0008230D9001C237A08CB007908CA00780841
:100DD000C9007708C800CF0BD42E4B08D8004A08AA
:100DE000D7004908D6004808D5009B247A08CB00D4
:100DF0007908CA007808C9007708C800CB1F0D2FF2
:100E0000CD03CD16C809C909CA09CB09C80A0319F7
:100E1000C90A0319CA0A0319CB0A3B30D4009A3015
:100E2000D300CA30D200D1010A30CF004C080319D8
:100E3000CD0A831420308500283084004B08D80068
:100E40004A08D7004908D6004808D5005408DC00F5
:100E50005308DB005208DA005108D900BA24780898
:100E6000F708031D462F4C0A4F020319462F4D0861
:100E70000319482F0F394F020319402F0318782FF9
:100E8000CD1B782F4D1B482F2030742F2030CD05DF
:100E9000CD1E562FCD124C08031DCD037708CD0073
:100EA0002D30D50065214D08F700CD014C084F02CB
:100EB000031D642F7708CD002E30D50065214D0825
:100EC000F7002030CD0500303030CD1E742FCD120C
:100ED0004C08031DCD037708CD002D30D5006521CA
:100EE0004D08F700CD013030F7077708D5006521B0
:100EF00083105408D8005308D7005208D600510870
:100F0000D500DC01DB01DA010A30D900BA247A0805
:100F1000D4007908D3007808D2007708D100CF0B2D
:060F2000192F8831842D19
:10100000850184011F30830522001E149D172030A6
:1010100023009B00A6309E0090309D002000A80178
:10102000A701A901AB01AA01AC01B001AF01AE015A
:10103000AD01B401B301B201B101B801B701B6010C
:10104000B50123008C018D012200920191019401D0
:1010500093012000A401A501A601B90122000C15ED
:1010600021000C1180312000282988310C30C80063
:1010700080311621883180315E21883121001508A8
:10108000C73928389500200095010530980099014E
:1010900018109701960122001D109D101D112100AE
:1010A0008D1122008D110B302500930094019501C4
:1010B0001E109E100130960009309200C43091003D
:1010C00021001517173097008B1611150B16911666
:1010D000C0308B042000BF01BE01BD01BC01A501D1
:1010E000A40180315E2188319C30230091000030C2
:1010F000920080312000772988310430C800FA300E
:10110000C9008031AB208831C80B7F2818146400D7
:101110002408C900C8011508FA014807BA007A086E
:10112000493DBB00390B932CAC08031D82292B08C9
:10113000073C031C8229031DA1282A08CF3C031C5D
:1011400082292530C3000630C2000130C1007B3047
:10115000C00083103008CF002F08CE002E08CD002D
:101160002D08CC00EC30D3005130D2003830D10003
:101170007C30D0008031BD2188317708C8007808E4
:10118000C9007908CA007A08CB0083104B08CF0049
:101190004A08CE004908CD004808CC004308D300D7
:1011A0004208D2004108D1004008D0008031BD2162
:1011B00088317708C8007808C9007908CA007A0819
:1011C000CB0083104B08CF004A08CE004908CD0061
:1011D0004808CC003408D3003308D2003208D100CC
:1011E0003108D0008031BD2188317A08BF007908EC
:1011F000BE007808BD007708BC008310EC30CF003B
:101200005130CE003830CD007C30CC004308D300C4
:101210004208D2004108D1004008D0008031BD21F1
:1012200088317708C8007808C9007908CA007A08A8
:10123000CB0083143F08CF003E08CE003D08CD0010
:101240003C08CC003008D3002F08D2002E08D10073
:101250002D08D0008031BD21883183144B08CF0088
:101260004A08CE004908CD004808CC007A08D300CF
:101270007908D2007808D1007708D0008031BD21EC
:1012800088317A08B4007908B3007808B20077088A
:10129000B10083103808CF003708CE003608CD00E3
:1012A0003508CC00EC30D3005130D2003830D100BA
:1012B0007C30D0008031BD2188317708C8007808A3
:1012C000C9007908CA007A08CB0083104B08CF0008
:1012D0004A08CE004908CD004808CC004308D30096
:1012E0004208D2004108D1004008D0008031BD2121
:1012F00088317A08C7007908C6007808C5007708E1
:10130000C4005C2B2C08013C03180B2A8310300806
:10131000CF002F08CE002E08CD002D08CC00EC30D9
:10132000D3005130D2003830D1007C30D000803131
:10133000BD2188317708C8007808C9007908CA003B
:101340007A08CB0083104B08CF004A08CE0049082A
:10135000CD004808CC003408D3003308D20032084E
:10136000D1003108D0008031BD2188317A08BF001A
:101370007908BE007808BD007708BC0083143F08D8
:10138000CF003E08CE003D08CD003C08CC00300820
:10139000D3002F08D2002E08D1002D08D0008031B4
:1013A000BD2188318314EC30CF005130CE0038306D
:1013B000CD007C30CC007A08D3007908D2007808C0
:1013C000D1007708D0008031BD2188317A08B4007F
:1013D0007908B3007808B2007708B10083103808A4
:1013E000CF003708CE003608CD003508CC00EC30F1
:1013F000D3005130D2003830D1007C30D000803161
:10140000BD2188317A08C7007908C6007808C50070
:101410007708C4005C2BCD012C08CC008031FF2262
:1014200088317708C8007808C9007908CA007A08A6
:10143000CB00D8004A08D7004908D6004808D50094
:10144000DC016030DB006A30DA008E30D900803198
:101450001C2388317708C8007808C9007908CA00B9
:101460007A08CB002B08CD002A08CC008031FF225F
:10147000883183104B08CF004A08CE004908CD00C0
:101480004808CC007A08D3007908D2007808D10047
:101490007708D0008031BD2188317708C8007808EE
:1014A000C9007908CA007A08CB0083144B08CF0022
:1014B0004A08CE004908CD004808CC003330D3009C
:1014C0007330D2000130D1008830D0008031BD218E
:1014D00088317330CB006830CA003A30C90085309B
:1014E000C8007A08CF007908CE007808CD007708C8
:1014F000CC008031912B88317A08C3007908C20072
:101500007808C1007708C00083103008CF002F088A
:10151000CE002E08CD002D08CC00EC30D300513089
:10152000D2003830D1007C30D0008031BD218831EC
:101530007708C8007808C9007908CA007A08CB0083
:1015400083104B08CF004A08CE004908CD00480858
:10155000CC004308D3004208D2004108D100400823
:10156000D0008031BD2188317708C8007808C900D3
:101570007908CA007A08CB0083104B08CF004A08CC
:10158000CE004908CD004808CC003408D300330809
:10159000D2003208D1003108D0008031BD2188311D
:1015A0007A08BF007908BE007808BD007708BC0043
:1015B0008310EC30CF005130CE003830CD007C307D
:1015C000CC004308D3004208D2004108D1004008B3
:1015D000D0008031BD2188317708C8007808C90063
:1015E0007908CA007A08CB0083143F08CF003E0870
:1015F000CE003D08CD003C08CC003008D3002F08B9
:10160000D2002E08D1002D08D0008031BD218831B4
:1016100083144B08CF004A08CE004908CD00480883
:10162000CC007A08D3007908D2007808D100770876
:10163000D0008031BD2188317A08B4007908B30028
:101640007808B2007708B10083103808CF00370857
:10165000CE003608CD003508CC00EC30D300513038
:10166000D2003830D1007C30D0008031BD218831AB
:101670007708C8007808C9007908CA007A08CB0042
:1016800083104B08CF004A08CE004908CD00480817
:10169000CC004308D3004208D2004108D1004008E2
:1016A000D0008031BD2188317A08C7007908C60092
:1016B0007808C5007708C4003F08B0003E08AF00B6
:1016C0003D08AE003C08AD009A30CB009930CA000E
:1016D0001930C9007D30C8004708CF004608CE0049
:1016E0004508CD004408CC0080315C2488310318C3
:1016F0007B2B031DCF2B22000C1121000C110F306E
:101700002000C9008031AB20883122000C15210057
:101710000C1114302000C9008031AB208831220028
:101720000C1121000C110F302000C9008031AB20BA
:10173000883122000C1521000C1114302000C90042
:101740008031AB20883122000C1121000C110F30A8
:101750002000C9008031AB20883122000C15210007
:101760000C11831420004708CF004608CE0045081E
:10177000CD004408CC009A30D3009930D200193003
:10178000D1007D30D0008031BD2188317A08B80089
:101790007908B7007808B6007708B500922CCD30EC
:1017A000CB00CC30CA004C30C9007C30C8004708A0
:1017B000CF004608CE004508CD004408CC0080315B
:1017C0005C2488310318E62B031D3B2C4708CB0013
:1017D0004608CA004508C9004408C8009A30CF002E
:1017E0009930CE001930CD007D30CC0080315C24A2
:1017F0008831031C3B2C22000C1121000C110F30EE
:101800002000C9008031AB20883122000C15210056
:101810000C1114302000C9008031AB208831220027
:101820000C1121000C110F302000C9008031AB20B9
:10183000883122000C1521000C1183142000470868
:10184000CF004608CE004508CD004408CC00CD307E
:10185000D300CC30D2004C30D1007C30D00080316D
:10186000BD2188317A08B8007908B7007808B60039
:101870007708B500922CCD30CB00CC30CA004C306C
:10188000C9007B30C8004708CF004608CE00450895
:10189000CD004408CC0080315C2488310318522CE0
:1018A000031D922C4708CB004608CA004508C90012
:1018B0004408C800CD30CF00CC30CE004C30CD0035
:1018C0007C30CC0080315C248831031C922C2200B7
:1018D0000C1121000C110F302000C9008031AB2009
:1018E000883122000C1521000C11831420004708B8
:1018F000CF004608CE004508CD004408CC00CD30CE
:10190000D300CC30D2004C30D1007B30D0008031BD
:10191000BD2188317A08B8007908B7007808B60088
:101920007708B500B901260BAB2C043084003008D1
:10193000CB002F08CA002E08C9002D08C8000130AE
:10194000CC008031062D88310A30111EA52C2300D1
:101950009A002000A601CB01CA016130C90088307D
:10196000C8003008CF002F08CE002E08CD002D086B
:10197000CC0080315C248831031CC52CA501A40156
:101980009501B001AF01AE01AD01CD30CB00CC303F
:10199000CA004C30C9007B30C8003808CF00370877
:1019A000CE003608CD003508CC0080315C2488316B
:1019B0000318DC2C031D112D1430C9008031AB201D
:1019C000883122000C1121000C110F302000C900B9
:1019D0008031AB20883122000C1521000C1114300D
:1019E0002000C9008031AB20883183143808CF0033
:1019F0003708CE003608CD003508CC00CD30D300F6
:101A0000CC30D2004C30D1007B30D0008031BD21B1
:101A100088317A08B8007908B7007808B6007708E6
:101A2000B5008030C8008031162188314330D500A0
:101A30008031652188313D30D50080316521883184
:101A40002030D500803165218831003084003B088A
:101A5000C9003A08C8008031D7258831A530230055
:101A6000910000309200031404302000C80080313F
:101A7000352E88312C08C8001830C9008031982EC6
:101A800088316D30D5008031652188316930D500CD
:101A90008031652188316E30D500803165218831F3
:101AA000C030C8008031162188310130C800203094
:101AB000D500803165218831C80B572D0030840056
:101AC0002B08C9002A08C8008031D72588316D301D
:101AD000D5008031652188317330D5008031652192
:101AE00088312030D500803165218831053084006F
:101AF0003008CB002F08CA002E08C9002D08C800E6
:101B00000130CC008031CE2E88314C30D500803170
:101B1000652188310230C800FA30C9008031AB201D
:0A1B20008831C80B8C2D8728942D06
:020000040001F9
:04000E00E209FF0AFA
:00000001FF
;PIC16F1827
;CRC=7B04  CREATED="09-11-18 14:59"
