:0600000000008831002819
:0800080083018A012000770842
:10001000A0007808A1007908A2007A08A3000B1EAE
:1000200013288B182E288B1E17280B1930288501B2
:1000300091308400001D1E2811193228850191304D
:100040008400801E2528911A34282008F7002108F2
:10005000F8002208F9002308FA0009008031652819
:100060008031362880313C2880317728A40A031952
:10007000A50A0B11803125282808EA3C031C4A28D0
:10008000031D462827085F3C031C4A28A70A0319BA
:10009000A80A62282908023C031C61282808E93CB8
:1000A00003186128FF3A031D592827085F3C0318ED
:1000B0006128A90AA801A701181097019601181430
:1000C000622818101111803125280130B900280844
:1000D000AB002708AA002908AC00A801A701A901C4
:1000E00018109701960118148B1080312528911E45
:1000F0007728230019082000E2006208613C031DF4
:1001000084280130A60099286208623C031D9928C2
:10011000A501A401A801A701A901AB01AA01AC0195
:10012000B001AF01AE01AD01B401B301B201B10143
:100130009501911280312528F232733A61397400A9
:10014000C31EA012353675102010A012B13AED343E
:100150006E00203085002930840000080319BE2875
:100160000330F800F701F70BB328F80BB2283C3046
:10017000F700F70BB928BC28800BB02808005708F7
:100180008039031DC92822000D1321000D13CD282D
:10019000200022000D1721000D13200057084039C0
:1001A000031DD82822008D1321008D13DC28200088
:1001B00022008D1721008D13200057082039031DC0
:1001C000E72822008D1121008D11EB28200022004C
:1001D0008D1521008D11200057081039031DF628B8
:1001E00022008C1021008C10FA28200022008C1490
:1001F00021008C102000D808031D042921000D12B5
:1002000022000D160829200021000D1222000D12D7
:10021000000021008D1022008D140E2921008D1068
:1002200022008D10200008004808D7000130D800B7
:10023000BF20480EC900F030C9054908D700013079
:10024000D800BF200230C900A92008000530660090
:100250000F30C900A9203030D7000130D800BF20AE
:100260000530C900A9203030D7000130D800BF20A8
:100270000130C900A9203030D7000130D800BF209C
:100280000130C900A9202030D7000130D800BF209C
:100290000130C900A9202E30C80014210830C80040
:1002A00014210D30C80014210630C800142102307A
:1002B000C8001421883135280130C80014210F30BE
:1002C000C900A92008005508D700D801BF20550E45
:1002D000D600F030D6055608D700D801BF20293007
:1002E000F700F70B7129000008000B08C8008B13FA
:1002F0002300951715140000000013087F39031917
:10030000B6292000C900230011082000CA002300DC
:1003100012082000CB004908D50063214A082300B9
:10032000910020004B08230092009517151400003F
:100330000000130D140D7F390319B6292000C900E0
:10034000230011082000CA00230012082000CB005F
:100350004908D50063214A082300910020004B087A
:1003600023009200910A0319920A79292000C81BE0
:100370008B1788317C2880308318D106D601D701AD
:100380004D08D5005108D5064C080319AE2AD400F3
:10039000F70050080319B72AD4020319522A031C84
:1003A0000F2A5108DA00DA175208D9005308D8008A
:1003B000D7010310DA0CD90CD80CD70CD40BD829E0
:1003C000D51FE5295614CB2A561054105616203046
:1003D00085002F308400E02A5612D51BF929541CC1
:1003E000042ADA0CD90CD80CD70CF70A0319C62A40
:1003F000042ADA1B072A0310D70DD80DD90DDA0D00
:10040000F7030319C62AF9295617732A56134D08FC
:10041000D500D51F0D2ADA17BF2ADA13BF2A5008D4
:10042000D400F7004C08D4024D08DA00DA174E0861
:10043000D9004F08D800D7010310DA0CD90CD80C1A
:10044000D70CD40B1B2AD51F282AD614CB2AD6109A
:100450005410D6162030850033308400E02AD6129E
:10046000D51B3C2A541C472ADA0CD90CD80CD70CC3
:10047000F70A0319C62A472ADA1B4A2A0310D70D9E
:10048000D80DD90DDA0DF7030319C62A3C2AD61761
:10049000732AD6135108D500D51F502ADA17BF2A60
:1004A000DA13BF2A5108DA00DA175208D9005308C4
:1004B000D800D51F5F2ADA135615CB2A5611D7015B
:1004C0005410203085002F308400E02AD51B892A63
:1004D0004D08D500541C732ADA0CD90CD80CD70C53
:1004E000F70A0319C62AD71F842AD80A031D842AAB
:1004F000D90A031D842ADA0A031D842ADA0CD90CCE
:10050000D80CF70A0319C62A561B062AD61B492AF5
:10051000A82A8030DA06DA1F912ACB2A5108D500A2
:100520009E2A4D08D500DA08031D9E2AD908031D0E
:100530009E2AD808031D9E2AF701BF2ADA1BA82A83
:100540000310D70DD80DD90DDA0DF70B9E2AC62A48
:10055000D51FAC2ADA17BF2ADA13BF2A5008F700D2
:100560005108DA005208D9005308D800BF2A4C08B5
:10057000F7004D08DA004E08D9004F08D8005A0895
:10058000F8005908F9005808FA00FC2AF701F801A8
:10059000F901FA01FC2AD701D809D909DA09D709E2
:1005A000D70A031DD92AD80A031DD92AD90A031943
:1005B000DA0A5618E429D618272A56195E2A8E2AEE
:1005C0000008D807031CEA2AD90A031DEA2ADA0A16
:1005D000031954141100D907031CF12ADA0A03196C
:1005E00054141100801F803ADA0703185414561A65
:1005F000EC29D61A2F2A662A08008E30F7004D08FB
:10060000F8004C08F900FA01F808031D112B7908CD
:10061000F800F9010830F702F808031D112BF70163
:10062000192B0310F81B182BF90DF80DF703112BDC
:10063000F8130800550803198A2BDD00590803191F
:100640008A2BDD0703182B2B7F30DD02031C8A2B3E
:1006500003198A2B2F2B8130DD0703188A2B5D08A5
:10066000F700F801F901FA015608E100E11757080F
:10067000E0005808DF001830DD00DE015F1C582B59
:100680005C08FA07031C4A2BF90A031D4A2BF80AD7
:100690000319DE175B08F907031C512BF80A03192D
:1006A000DE175A08D700D7175708F8070318DE17C0
:1006B000DE0DF80CF90CFA0CE10CE00CDF0C031069
:1006C000DD0B3D2B0130F70703188A2BF81B6F2B2E
:1006D000E10DFA0DF90DF80DF70303198A2BE11F4F
:1006E000802BFA0A031D802BF90A031D802BF80AC0
:1006F000031D802BF80CF90CFA0CF70A03198A2B4E
:100700005608DE005A08DE06DE1F882BF8178E2BEF
:10071000F8138E2BF701F801F901FA0108004808D7
:100720000319542CD4004C080319542CD402031C74
:100730009E2B7F30D4070318542CA42B8130D40275
:10074000031C542C0319542C5408F700F801F90128
:10075000FA01D3014908D200D2174A08D1004B0848
:10076000D0001930D4004F08D0020318C72B013035
:10077000D1020318C72BD2020318C72BD3020318C8
:10078000C72BD30AD20AD10A4F08D007F92B4E083B
:10079000D1020318E22B0130D2020318E22BD3025C
:1007A0000318E22BD30AD20A4E08D1074F08D0070C
:1007B000031CF92BD10A031DF92BD20A031DF92BB7
:1007C000D30AF92B4D088038D2020318F82B0130D8
:1007D000D3020318F82BD30A4D088038D2074E08ED
:1007E000D107031CD62BD20A031DD62BD30AD62B36
:1007F0007A14D40BFC2B072C0310D00DD10DD20D85
:10080000D30D0310FA0DF90DF80DD50DB32B551CB2
:100810000F2C0310F80CF90CFA0CD50C122CF70362
:100820000319542CD51B3B2C0310D00DD10DD20D28
:10083000D30D4F08D0020318272C0130D102031822
:10084000272CD2020318272CD302031C4A2C4E0853
:10085000D1020318322C0130D2020318322CD302F9
:10086000031C4A2C4D088038D20203183B2C01305F
:10087000D302031C4A2CFA0A031D4A2CF90A031D51
:100880004A2CF80A031D4A2CF70A0319542CF80CB9
:10089000F90CFA0C4908D4004D08D406D41F522C88
:1008A000F817582CF813582CF701F801F901FA0140
:1008B00088317B2A4908D0004D08D006D01F652C0E
:1008C00003110310C91B0314982C4908D0004C08CD
:1008D000D1004808D1020319732CD01F982C0308AB
:1008E000013A8300982C4D08D1004908D102031920
:1008F0007F2CD01F982C0308013A8300982C4E08B7
:10090000D1004A08D10203198B2CD01F982C030860
:10091000013A8300982C4F08D1004B08D1020319EB
:10092000972CD01F982C0308013A8300982C0310B1
:1009300008005508B63CD500FA015608D900D6176C
:100940000310D60CD70CD80CFA0CF90CF80CF70CD9
:10095000D50BA02CD91FB72CF709F809F909FA090A
:10096000F70A0319F80A0319F90A0319FA0A080021
:100970008318BD2C85015D308400F701F801F90171
:10098000FA01DD01DE01DF01E0015C085B045A04CD
:1009900059040319FB2C2030E1000310D50DD60DAE
:1009A000D70DD80DDD0DDE0DDF0DE00D5C0860020A
:1009B000031DE42C5B085F02031DE42C5A085E0251
:1009C000031DE42C59085D02031CF52C5908DD02B7
:1009D0005A08031C5A0FDE025B08031C5B0FDF0280
:1009E0005C08031C5C0FE0020314F70DF80DF90D11
:1009F000FA0DE10BCD2C5D0880005E08813F5F0899
:100A0000823F6008833F08000408CD004C08CF00F7
:100A10000319232D4B08D8004A08D7004908D600EF
:100A20004808D500DC01DB012030DA008230D90033
:100A30001A237A08CB007908CA007808C900770819
:100A4000C800CF0B0A2D4B08D8004A08D700490828
:100A5000D6004808D50099247A08CB007908CA0046
:100A60007808C9007708C800CB1F432DCD03CD16E9
:100A7000C809C909CA09CB09C80A0319C90A03194F
:100A8000CA0A0319CB0A3B30D4009A30D300CA30CB
:100A9000D200D1010A30CF004C080319CD0A8314CB
:100AA00020308500283084004B08D8004A08D70041
:100AB0004908D6004808D5005408DC005308DB007C
:100AC0005208DA005108D900B8247808F708031D45
:100AD0007C2D4C0A4F0203197C2D4D0803197E2DE5
:100AE0000F394F020319762D0318BA2DCD1BBA2DDD
:100AF0004D1B7E2D2030B32D2030CD05CD1E8F2DEA
:100B0000CD124C08031DCD037708CD002D30111EEA
:100B1000872D23009A0020004D08F700CD014C08D6
:100B20004F02031DA02D7708CD002E30111E962DEB
:100B300023009A0020004D08F7002030CD0500303A
:100B40003030CD1EB32DCD124C08031DCD037708D8
:100B5000CD002D30111EAA2D23009A0020004D0833
:100B6000F700CD013030F7077708111EB52D2300AF
:100B70009A00200083105408D8005308D700520868
:100B8000D6005108D500DC01DB01DA010A30D900BA
:100B9000B8247A08D4007908D3007808D2007708FE
:100BA000D100CF0B4F2D8831A32C0508D0000408AD
:100BB000CF00490EF038CB00CB07E23ECC00323EEE
:100BC000CE0049080F39CC07CC07CE07E93ECD004F
:100BD000CD07CD07480E0F39CD07CE07CD0DCE0D71
:100BE000CE09CE0D48080F39CE07CB0D0730CA000D
:100BF0000A30CE07CD03031CF92DCD07CC03031C0F
:100C0000FD2DCC07CB03031C012ECB07CA03031C0D
:100C1000052E85014A30840007304F054F138407A5
:100C20004E30040203194F170008F700031D202E51
:100C30004F1B202E4F1A2F2ECF19202E2030232E5F
:100C4000CF154F123030F7070508C9000408C80057
:100C50007708D500632149088500480884000131E0
:100C60004F1F102E08000B08C9008B132300951787
:100C700015140000000003185F2E13087F392000B0
:100C8000CA00230011082000CB0023001208200016
:100C9000CC004A08D50063214B08230091002000B6
:100CA0004C08230092009517151400000000200046
:100CB000C80B5B2E5D2E23005F2E7D2E2300130DAF
:100CC000140D7F392000CA00230011082000CB003A
:100CD000230012082000CC004A08D50063214B08ED
:100CE0002300910020004C0823009200910A031970
:100CF000920A03102000C80B362EC91B8B178831AF
:100D0000392D4B08F8014A020318892E4A08F700CA
:100D1000952EF7010830CC00CA0DF70D4B0877026D
:100D20000318F700F80DCC0B8C2E08007808480843
:100D3000CA006430CB0081267708C80078083030BC
:100D4000031DA92EC91CB02EC919B02E491A203076
:100D5000AC2EC91149124914F8077808D50063214F
:100D60004808CA000A30CB0081267708C8007808F6
:100D70003030031DC12EC919C52E491CC52E491A74
:100D80002030F8077808D50063213030C8074808BC
:100D9000D50063218831402D0408CD004C08CF00D8
:100DA0000319EB2E4B08D8004A08D7004908D60093
:100DB0004808D500DC01DB012030DA008230D900A0
:100DC0001A237A08CB007908CA007808C900770886
:100DD000C800CF0BD22E4B08D8004A08D7004908CC
:100DE000D6004808D50099247A08CB007908CA00B3
:100DF0007808C9007708C800CB1F0B2FCD03CD168C
:100E0000C809C909CA09CB09C80A0319C90A0319BB
:100E1000CA0A0319CB0A3B30D4009A30D300CA3037
:100E2000D200D1010A30CF004C080319CD0A831437
:100E300020308500283084004B08D8004A08D700AD
:100E40004908D6004808D5005408DC005308DB00E8
:100E50005208DA005108D900B8247808F708031DB1
:100E6000442F4C0A4F020319442F4D080319462FF3
:100E70000F394F0203193E2F0318762FCD1B762F03
:100E80004D1B462F2030722F2030CD05CD1E542F04
:100E9000CD124C08031DCD037708CD002D30D500B1
:100EA00063214D08F700CD014C084F02031D622F4E
:100EB0007708CD002E30D50063214D08F700203093
:100EC000CD0500303030CD1E722FCD124C08031DE1
:100ED000CD037708CD002D30D50063214D08F700F4
:100EE000CD013030F7077708D5006321831054080F
:100EF000D8005308D7005208D6005108D500DC01AD
:100F0000DB01DA010A30D900B8247A08D400790864
:100F1000D3007808D2007708D100CF0B172F883183
:020F2000842D1E
:10100000850184011F30830522001E149D172030A6
:1010100023009B00A6309E0090309D002000A80178
:10102000A701A901AB01AA01AC01B001AF01AE015A
:10103000AD01B401B301B201B101B801B701B6010C
:10104000B50123008C018D012200920191019401D0
:1010500093012000A401A501A601B90122000C15ED
:1010600021000C1180312000262988310C30C80065
:1010700080311421883180315C21883121001508AC
:10108000C73928389500200095010530980099014E
:1010900018109701960122001D109D101D112100AE
:1010A0008D1122008D110B302500930094019501C4
:1010B0001E109E100130960009309200C43091003D
:1010C00021001517173097008B1611150B16911666
:1010D000C0308B042000BF01BE01BD01BC01A501D1
:1010E000A40180315C2188319C30230091000030C4
:1010F000920080312000752988310430C800FA3010
:10110000C9008031A9208831C80B7F2818146400D9
:101110002408C900C8011508FA014807BA007A086E
:10112000493DBB00390B932CAC08031D82292B08C9
:10113000073C031C8229031DA1282A08CF3C031C5D
:1011400082292530C3000630C2000130C1007B3047
:10115000C00083103008CF002F08CE002E08CD002D
:101160002D08CC00EC30D3005130D2003830D10003
:101170007C30D0008031BB2188317708C8007808E6
:10118000C9007908CA007A08CB0083104B08CF0049
:101190004A08CE004908CD004808CC004308D300D7
:1011A0004208D2004108D1004008D0008031BB2164
:1011B00088317708C8007808C9007908CA007A0819
:1011C000CB0083104B08CF004A08CE004908CD0061
:1011D0004808CC003408D3003308D2003208D100CC
:1011E0003108D0008031BB2188317A08BF007908EE
:1011F000BE007808BD007708BC008310EC30CF003B
:101200005130CE003830CD007C30CC004308D300C4
:101210004208D2004108D1004008D0008031BB21F3
:1012200088317708C8007808C9007908CA007A08A8
:10123000CB0083143F08CF003E08CE003D08CD0010
:101240003C08CC003008D3002F08D2002E08D10073
:101250002D08D0008031BB21883183144B08CF008A
:101260004A08CE004908CD004808CC007A08D300CF
:101270007908D2007808D1007708D0008031BB21EE
:1012800088317A08B4007908B3007808B20077088A
:10129000B10083103808CF003708CE003608CD00E3
:1012A0003508CC00EC30D3005130D2003830D100BA
:1012B0007C30D0008031BB2188317708C8007808A5
:1012C000C9007908CA007A08CB0083104B08CF0008
:1012D0004A08CE004908CD004808CC004308D30096
:1012E0004208D2004108D1004008D0008031BB2123
:1012F00088317A08C7007908C6007808C5007708E1
:10130000C4005C2B2C08013C03180B2A8310300806
:10131000CF002F08CE002E08CD002D08CC00EC30D9
:10132000D3005130D2003830D1007C30D000803131
:10133000BB2188317708C8007808C9007908CA003D
:101340007A08CB0083104B08CF004A08CE0049082A
:10135000CD004808CC003408D3003308D20032084E
:10136000D1003108D0008031BB2188317A08BF001C
:101370007908BE007808BD007708BC0083143F08D8
:10138000CF003E08CE003D08CD003C08CC00300820
:10139000D3002F08D2002E08D1002D08D0008031B4
:1013A000BB2188318314EC30CF005130CE0038306F
:1013B000CD007C30CC007A08D3007908D2007808C0
:1013C000D1007708D0008031BB2188317A08B40081
:1013D0007908B3007808B2007708B10083103808A4
:1013E000CF003708CE003608CD003508CC00EC30F1
:1013F000D3005130D2003830D1007C30D000803161
:10140000BB2188317A08C7007908C6007808C50072
:101410007708C4005C2BCD012C08CC008031FD2264
:1014200088317708C8007808C9007908CA007A08A6
:10143000CB00D8004A08D7004908D6004808D50094
:10144000DC016030DB006A30DA008E30D900803198
:101450001A2388317708C8007808C9007908CA00BB
:101460007A08CB002B08CD002A08CC008031FD2261
:10147000883183104B08CF004A08CE004908CD00C0
:101480004808CC007A08D3007908D2007808D10047
:101490007708D0008031BB2188317708C8007808F0
:1014A000C9007908CA007A08CB0083144B08CF0022
:1014B0004A08CE004908CD004808CC003330D3009C
:1014C0007330D2000130D1008830D0008031BB2190
:1014D00088317330CB006830CA003A30C90085309B
:1014E000C8007A08CF007908CE007808CD007708C8
:1014F000CC0080318F2B88317A08C3007908C20074
:101500007808C1007708C00083103008CF002F088A
:10151000CE002E08CD002D08CC00EC30D300513089
:10152000D2003830D1007C30D0008031BB218831EE
:101530007708C8007808C9007908CA007A08CB0083
:1015400083104B08CF004A08CE004908CD00480858
:10155000CC004308D3004208D2004108D100400823
:10156000D0008031BB2188317708C8007808C900D5
:101570007908CA007A08CB0083104B08CF004A08CC
:10158000CE004908CD004808CC003408D300330809
:10159000D2003208D1003108D0008031BB2188311F
:1015A0007A08BF007908BE007808BD007708BC0043
:1015B0008310EC30CF005130CE003830CD007C307D
:1015C000CC004308D3004208D2004108D1004008B3
:1015D000D0008031BB2188317708C8007808C90065
:1015E0007908CA007A08CB0083143F08CF003E0870
:1015F000CE003D08CD003C08CC003008D3002F08B9
:10160000D2002E08D1002D08D0008031BB218831B6
:1016100083144B08CF004A08CE004908CD00480883
:10162000CC007A08D3007908D2007808D100770876
:10163000D0008031BB2188317A08B4007908B3002A
:101640007808B2007708B10083103808CF00370857
:10165000CE003608CD003508CC00EC30D300513038
:10166000D2003830D1007C30D0008031BB218831AD
:101670007708C8007808C9007908CA007A08CB0042
:1016800083104B08CF004A08CE004908CD00480817
:10169000CC004308D3004208D2004108D1004008E2
:1016A000D0008031BB2188317A08C7007908C60094
:1016B0007808C5007708C4003F08B0003E08AF00B6
:1016C0003D08AE003C08AD009A30CB009930CA000E
:1016D0001930C9007D30C8004708CF004608CE0049
:1016E0004508CD004408CC0080315A2488310318C5
:1016F0007B2B031DCF2B22000C1121000C110F306E
:101700002000C9008031A920883122000C15210059
:101710000C1114302000C9008031A920883122002A
:101720000C1121000C110F302000C9008031A920BC
:10173000883122000C1521000C1114302000C90042
:101740008031A920883122000C1121000C110F30AA
:101750002000C9008031A920883122000C15210009
:101760000C11831420004708CF004608CE0045081E
:10177000CD004408CC009A30D3009930D200193003
:10178000D1007D30D0008031BB2188317A08B8008B
:101790007908B7007808B6007708B500922CCD30EC
:1017A000CB00CC30CA004C30C9007C30C8004708A0
:1017B000CF004608CE004508CD004408CC0080315B
:1017C0005A2488310318E62B031D3B2C4708CB0015
:1017D0004608CA004508C9004408C8009A30CF002E
:1017E0009930CE001930CD007D30CC0080315A24A4
:1017F0008831031C3B2C22000C1121000C110F30EE
:101800002000C9008031A920883122000C15210058
:101810000C1114302000C9008031A9208831220029
:101820000C1121000C110F302000C9008031A920BB
:10183000883122000C1521000C1183142000470868
:10184000CF004608CE004508CD004408CC00CD307E
:10185000D300CC30D2004C30D1007C30D00080316D
:10186000BB2188317A08B8007908B7007808B6003B
:101870007708B500922CCD30CB00CC30CA004C306C
:10188000C9007B30C8004708CF004608CE00450895
:10189000CD004408CC0080315A2488310318522CE2
:1018A000031D922C4708CB004608CA004508C90012
:1018B0004408C800CD30CF00CC30CE004C30CD0035
:1018C0007C30CC0080315A248831031C922C2200B9
:1018D0000C1121000C110F302000C9008031A9200B
:1018E000883122000C1521000C11831420004708B8
:1018F000CF004608CE004508CD004408CC00CD30CE
:10190000D300CC30D2004C30D1007B30D0008031BD
:10191000BB2188317A08B8007908B7007808B6008A
:101920007708B500B901260BAB2C043084003008D1
:10193000CB002F08CA002E08C9002D08C8000130AE
:10194000CC008031042D88310A30111EA52C2300D3
:101950009A002000A601CB01CA016130C90088307D
:10196000C8003008CF002F08CE002E08CD002D086B
:10197000CC0080315A248831031CC52CA501A40158
:101980009501B001AF01AE01AD01CD30CB00CC303F
:10199000CA004C30C9007B30C8003808CF00370877
:1019A000CE003608CD003508CC0080315A2488316D
:1019B0000318DC2C031D112D1430C9008031A9201F
:1019C000883122000C1121000C110F302000C900B9
:1019D0008031A920883122000C1521000C1114300F
:1019E0002000C9008031A920883183143808CF0035
:1019F0003708CE003608CD003508CC00CD30D300F6
:101A0000CC30D2004C30D1007B30D0008031BB21B3
:101A100088317A08B8007908B7007808B6007708E6
:101A2000B5008030C8008031142188314330D500A2
:101A30008031632188313D30D50080316321883188
:101A40002030D500803163218831003084003B088C
:101A5000C9003A08C8008031D5258831A330230059
:101A6000910000309200031404302000C80080313F
:101A7000332E88312C08C8001830C9008031962ECA
:101A800088316D30D5008031632188316930D500CF
:101A90008031632188316E30D500803163218831F7
:101AA000C030C8008031142188310130C800203096
:101AB000D500803163218831C80B572D0030840058
:101AC0002B08C9002A08C8008031D52588316D301F
:101AD000D5008031632188317330D5008031632196
:101AE00088312030D5008031632188310530840071
:101AF0003008CB002F08CA002E08C9002D08C800E6
:101B00000130CC008031CC2E88314C30D500803172
:101B1000632188310230C800FA30C9008031A92021
:0A1B20008831C80B8C2D8728942D06
:020000040001F9
:04000E00E209FF0AFA
:00000001FF
;PIC16F1827
;CRC=23A5  CREATED="07-11-18 13:59"
