:0600000000008831002819
:0800080083018A012000770842
:10001000A0007808A1007908A2007A08A3000B1EAE
:1000200013288B182E288B1E17280B1930288501B2
:1000300091308400001D1E2811193228850191304D
:100040008400801E2528911A34282008F7002108F2
:10005000F8002208F9002308FA0009008031652819
:100060008031362880313C2880317728A40A031952
:10007000A50A0B11803125282808EA3C031C4A28D0
:10008000031D462827085F3C031C4A28A70A0319BA
:10009000A80A62282908023C031C61282808E93CB8
:1000A00003186128FF3A031D592827085F3C0318ED
:1000B0006128A90AA801A701181097019601181430
:1000C000622818101111803125280130B500280848
:1000D000AB002708AA002908AC00A801A701A901C4
:1000E00018109701960118148B1080312528911E45
:1000F0007728230019082000DA005A08613C031D04
:1001000084280130A60095285A08623C031D9528D2
:10011000A501A401A801A701A901AB01AA01AC0195
:10012000B001AF01AE01AD019501911280312528DA
:10013000F232733A61397400C31EA012353675105D
:100140002010A012B13AED346E002030850021302D
:10015000840000080319BA280330F800F701F70BF0
:10016000AF28F80BAE283C30F700F70BB528B828BD
:10017000800BAC2808004F088039031DC5282200D9
:100180000D1321000D13C928200022000D17210096
:100190000D1320004F084039031DD42822008D1371
:1001A00021008D13D828200022008D1721008D13E7
:1001B00020004F082039031DE32822008D11210063
:1001C0008D11E728200022008D1521008D112000BF
:1001D0004F081039031DF22822008C1021008C10CA
:1001E000F628200022008C1421008C102000D0085A
:1001F000031D002921000D1222000D1604292000E4
:1002000021000D1222000D12000021008D1022008D
:100210008D140A2921008D1022008D102000080065
:100220004008CF000130D000BB20400EC100F030AC
:10023000C1054108CF000130D000BB200230C10011
:10024000A5200800053066000F30C100A520303021
:10025000CF000130D000BB200530C100A5203030D8
:10026000CF000130D000BB200130C100A5203030CC
:10027000CF000130D000BB200130C100A5202030CC
:10028000CF000130D000BB200130C100A5202E30AE
:10029000C00010210830C00010210D30C000102116
:1002A0000630C00010210230C000102188313128F2
:1002B0000130C00010210F30C100A52008004D08FA
:1002C000CF00D001BB204D0ECE00F030CE054E0841
:1002D000CF00D001BB202930F700F70B6D290000BB
:1002E00008000B08C0008B1323009517151400009D
:1002F000000013087F390319B2292000C100230030
:1003000011082000C200230012082000C300410889
:10031000CD005F2142082300910020004308230004
:1003200092009517151400000000130D140D7F396D
:100330000319B2292000C100230011082000C200C7
:10034000230012082000C3004108CD005F214208AD
:10035000230091002000430823009200910A031912
:10036000920A75292000C01B8B17883174288030B1
:100370008318CD06D201D3014908D1004D08D1061A
:1003800048080319AA2AD000F7004C080319B32A19
:10039000D00203194E2A031C0B2A4D08D600D6178B
:1003A0004E08D5004F08D400D3010310D60CD50C4D
:1003B000D40CD30CD00BD429D11FE1295214C72A55
:1003C000521050105216203085002B308400DC2A49
:1003D0005212D11BF529501C002AD60CD50CD40C76
:1003E000D30CF70A0319C22A002AD61B032A0310CA
:1003F000D30DD40DD50DD60DF7030319C22AF52957
:1004000052176F2A52134908D100D11F092AD61753
:10041000BB2AD613BB2A4C08D000F7004808D002EC
:100420004908D600D6174A08D5004B08D400D30196
:100430000310D60CD50CD40CD30CD00B172AD11F1B
:10044000242AD214C72AD2105010D2162030850088
:100450002F308400DC2AD212D11B382A501C432AA8
:10046000D60CD50CD40CD30CF70A0319C22A432A94
:10047000D61B462A0310D30DD40DD50DD60DF70388
:100480000319C22A382AD2176F2AD2134D08D10075
:10049000D11F4C2AD617BB2AD613BB2A4D08D6002B
:1004A000D6174E08D5004F08D400D11F5B2AD613AB
:1004B0005215C72A5211D3015010203085002B301D
:1004C0008400DC2AD11B852A4908D100501C6F2AE0
:1004D000D60CD50CD40CD30CF70A0319C22AD31F9F
:1004E000802AD40A031D802AD50A031D802AD60A31
:1004F000031D802AD60CD50CD40CF70A0319C22A86
:10050000521B022AD21B452AA42A8030D606D61FA7
:100510008D2AC72A4D08D1009A2A4908D100D60849
:10052000031D9A2AD508031D9A2AD408031D9A2A66
:10053000F701BB2AD61BA42A0310D30DD40DD50D69
:10054000D60DF70B9A2AC22AD11FA82AD617BB2A82
:10055000D613BB2A4C08F7004D08D6004E08D5002C
:100560004F08D400BB2A4808F7004908D6004A08BB
:10057000D5004B08D4005608F8005508F900540877
:10058000FA00F82AF701F801F901FA01F82AD30173
:10059000D409D509D609D309D30A031DD52AD40A0B
:1005A000031DD52AD50A0319D60A5218E029D218F4
:1005B000232A52195A2A8A2A0008D407031CE62A39
:1005C000D50A031DE62AD60A031950141100D507CF
:1005D000031CED2AD60A031950141100801F803A1B
:1005E000D60703185014521AE829D21A2B2A622A65
:1005F00008008E30F7004508F8004408F900FA01B9
:10060000F808031D0D2B7908F800F9010830F702EE
:10061000F808031D0D2BF701152B0310F81B142BE5
:10062000F90DF80DF7030D2BF81308004D08031909
:10063000862BD50051080319862BD5070318272BC5
:100640007F30D502031C862B0319862B2B2B813080
:10065000D5070318862B5508F700F801F901FA01B0
:100660004E08D900D9174F08D8005008D7001830C5
:10067000D500D601571C542B5408FA07031C462BEF
:10068000F90A031D462BF80A0319D6175308F90770
:10069000031C4D2BF80A0319D6175208CF00CF17A9
:1006A0004F08F8070318D617D60DF80CF90CFA0CFA
:1006B000D90CD80CD70C0310D50B392B0130F70708
:1006C0000318862BF81B6B2BD90DFA0DF90DF80DBD
:1006D000F7030319862BD91F7C2BFA0A031D7C2BE9
:1006E000F90A031D7C2BF80A031D7C2BF80CF90C6E
:1006F000FA0CF70A0319862B4E08D6005208D606C4
:10070000D61F842BF8178A2BF8138A2BF701F801D0
:10071000F901FA01080044080319502CD0004808D8
:100720000319502CD002031C9A2B7F30D0070318DA
:10073000502CA02B8130D002031C502C0319502CBC
:100740005008F700F801F901FA01CF014508CE0081
:10075000CE174608CD004708CC001930D0004B0812
:10076000CC020318C32B0130CD020318C32BCE02D9
:100770000318C32BCF020318C32BCF0ACE0ACD0A0E
:100780004B08CC07F52B4A08CD020318DE2B0130AD
:10079000CE020318DE2BCF020318DE2BCF0ACE0ABF
:1007A0004A08CD074B08CC07031CF52BCD0A031DC7
:1007B000F52BCE0A031DF52BCF0AF52B49088038FF
:1007C000CE020318F42B0130CF020318F42BCF0A0A
:1007D00049088038CE074A08CD07031CD22BCE0A21
:1007E000031DD22BCF0AD22B7A14D00BF82B032C5B
:1007F0000310CC0DCD0DCE0DCF0D0310FA0DF90D5C
:10080000F80DD10DAF2B511C0B2C0310F80CF90C6B
:10081000FA0CD10C0E2CF7030319502CD11B372CDA
:100820000310CC0DCD0DCE0DCF0D4B08CC0203180F
:10083000232C0130CD020318232CCE020318232CC5
:10084000CF02031C462C4A08CD0203182E2C01307F
:10085000CE0203182E2CCF02031C462C49088038E8
:10086000CE020318372C0130CF02031C462CFA0AA3
:10087000031D462CF90A031D462CF80A031D462CBD
:10088000F70A0319502CF80CF90CFA0C4508D000A3
:100890004908D006D01F4E2CF817542CF813542CAE
:1008A000F701F801F901FA0108004108C8004508FC
:1008B000C806C81F602C03110310C11B0314932C1E
:1008C0004108C8004408C9004008C90203196E2C39
:1008D000C81F932C0308013A8300932C4508C900D4
:1008E0004108C90203197A2CC81F932C0308013A46
:1008F0008300932C4608C9004208C9020319862CBC
:10090000C81F932C0308013A8300932C4708C900A1
:100910004308C9020319922CC81F932C0308013AFB
:100920008300932C031008004D08B63CCD00FA015B
:100930004E08D100CE170310CE0CCF0CD00CFA0C01
:10094000F90CF80CF70CCD0B9B2CD11FB22CF7092E
:10095000F809F909FA09F70A0319F80A0319F90A53
:100960000319FA0A08008318B82C85015530840051
:10097000F701F801F901FA01D501D601D701D80133
:1009800054085304520451040319F62C2030D900A2
:100990000310CD0DCE0DCF0DD00DD50DD60DD70D2D
:1009A000D80D54085802031DDF2C53085702031DAD
:1009B000DF2C52085602031DDF2C51085502031C80
:1009C000F02C5108D5025208031C520FD6025308CE
:1009D000031C530FD7025408031C540FD8020314EE
:1009E000F70DF80DF90DFA0DD90BC82C550880003C
:1009F0005608813F5708823F5808833F0800040883
:100A0000C5004408C70003191E2D4308D000420842
:100A1000CF004108CE004008CD00D401D3012030E2
:100A2000D2008230D10016237A08C3007908C200B0
:100A30007808C1007708C000C70B052D4308D00017
:100A40004208CF004108CE004008CD0094247A0827
:100A5000C3007908C2007808C1007708C000C31F2E
:100A60003E2DC503C516C009C109C209C309C00A84
:100A70000319C10A0319C20A0319C30A3B30CC0087
:100A80009A30CB00CA30CA00C9010A30C7004408F6
:100A90000319C50A83142030850084004308D00060
:100AA0004208CF004108CE004008CD004C08D400D9
:100AB0004B08D3004A08D2004908D100B324780873
:100AC000F708031D762D440A47020319762D4508C1
:100AD0000319782D0F3947020319702D0318B42D0F
:100AE000C51BB42D451B782D2030AD2D2030C505FC
:100AF000C51E892DC5124408031DC5037708C5000E
:100B00002D30111E812D23009A0020004508F7008A
:100B1000C50144084702031D9A2D7708C5002E30F1
:100B2000111E902D23009A0020004508F700203068
:100B3000C50500303030C51EAD2DC5124408031D5B
:100B4000C5037708C5002D30111EA42D23009A007F
:100B500020004508F700C5013030F7077708111E5F
:100B6000AF2D23009A00200083104C08D0004B08C2
:100B7000CF004A08CE004908CD00D401D301D201EC
:100B80000A30D100B3247A08CC007908CB00780869
:100B9000CA007708C900C70B4A2D8831562D0508B1
:100BA000C8000408C700410EF038C300C307E23E86
:100BB000C400323EC60041080F39C407C407C60747
:100BC000E93EC500C507C507400E0F39C507C60772
:100BD000C50DC60DC609C60D40080F39C607C30DA1
:100BE0000730C2000A30C607C503031CF32DC50732
:100BF000C403031CF72DC407C303031CFB2DC30749
:100C0000C203031CFF2D85014230840007304705D5
:100C10004713840746300402031947170008F700FA
:100C2000031D1A2E471B1A2E471A292EC7191A2ED2
:100C300020301D2EC71547123030F7070508C100B8
:100C40000408C0007708CD005F21410885004008F6
:100C500084000131471F0A2E08000B08C1008B13C6
:100C6000230095171514000000000318592E1308CF
:100C70007F392000C200230011082000C300230098
:100C800012082000C4004208CD005F214308230061
:100C900091002000440823009200951715140000CD
:100CA00000002000C00B552E572E2300592E772E02
:100CB0002300130D140D7F392000C20023001108FA
:100CC0002000C300230012082000C4004208CD0009
:100CD0005F21430823009100200044082300920074
:100CE000910A0319920A03102000C00B302EC11B79
:100CF0008B178831EC2D4308F80142020318832E2C
:100D00004208F7008F2EF7010830C400C20DF70D1E
:100D1000430877020318F700F80DC40B862E08006D
:100D200078084008C2006430C3007B267708C00002
:100D300078083030031DA32EC11CAA2EC119AA2E7B
:100D4000411A2030A62EC11141124114F80778082B
:100D5000CD005F214008C2000A30C3007B2677081F
:100D6000C00078083030031DBB2EC119BF2E411CB6
:100D7000BF2E411A2030F8077808CD005F213030AF
:100D8000C0074008CD005F218831F32D0408C5005D
:100D90004408C7000319E52E4308D0004208CF00DD
:100DA0004108CE004008CD00D401D3012030D2004C
:100DB0008230D10016237A08C3007908C20078086F
:100DC000C1007708C000C70BCC2E4308D0004208F2
:100DD000CF004108CE004008CD0094247A08C3001B
:100DE0007908C2007808C1007708C000C31F052F2A
:100DF000C503C516C009C109C209C309C00A031940
:100E0000C10A0319C20A0319C30A3B30CC009A3045
:100E1000CB00CA30CA00C9010A30C7004408031910
:100E2000C50A83142030850084004308D00042089E
:100E3000CF004108CE004008CD004C08D4004B083C
:100E4000D3004A08D2004908D100B3247808F70833
:100E5000031D3D2F440A470203193D2F450803197E
:100E60003F2F0F3947020319372F03186F2FC51B68
:100E70006F2F451B3F2F20306B2F2030C505C51E1F
:100E80004D2FC5124408031DC5037708C5002D303A
:100E9000CD005F214508F700C50144084702031D46
:100EA0005B2F7708C5002E30CD005F214508F70085
:100EB0002030C50500303030C51E6B2FC5124408E8
:100EC000031DC5037708C5002D30CD005F214508FF
:100ED000F700C5013030F7077708CD005F21831098
:100EE0004C08D0004B08CF004A08CE004908CD007E
:100EF000D401D301D2010A30D100B3247A08CC0046
:100F00007908CB007808CA007708C900C70B112FF1
:040F10008831372EBF
:10100000850184011F30830522001E149D172030A6
:1010100023009B00A6309E0090309D002000A80178
:10102000A701A901AB01AA01AC01B001AF01AE015A
:10103000AD01B401B301B201B10123008C018D01F6
:10104000220092019101940193012000A401A501C5
:10105000A601B50122000C1521000C1180312000E1
:10106000222988310C30C000803110218831803134
:101070005821883121001508C739283895002000EB
:1010800095010530980099011810970196012200EA
:101090001D109D101D1121008D1122008D110B308E
:1010A00025009300940195011E109E1001309600BA
:1010B00009309200C43091002100151717309700B5
:1010C0008B1611150B169116C0308B042000A5014C
:1010D000A4018031582188319830230091000030DC
:1010E000920080312000712988310430C000FA302C
:1010F000C1008031A5208831C00B77281814640006
:101100002408C100C0011508FA014007B6007A089A
:10111000413DB700350B462DAC08031D12292B08A5
:10112000073C031C1229031D99282A08CF3C031CE5
:1011300012291F30BB002E30BA003930B9007B3085
:10114000B80083103008CB002F08CA002E08C90051
:101150002D08C800BD30CF005230CE003630CD0053
:101160007C30CC008031B72188317708C000780806
:10117000C1007908C2007A08C30083104308CB007D
:101180004208CA004108C9004008C8003B08CF0017
:101190003A08CE003908CD003808CC008031B7219C
:1011A00088317A08B0007908AF007808AE00770877
:1011B000AD0083103408CB003308CA003208C900E0
:1011C0003108C800BD30CF005230CE003630CD00DF
:1011D0007C30CC008031B72188317708C000780896
:1011E000C1007908C2007A08C30083104308CB000D
:1011F0004208CA004108C9004008C8003B08CF00A7
:101200003A08CE003908CD003808CC008031B7212B
:1012100088317A08BF007908BE007808BD007708D9
:10122000BC00172CAC08031D042A2B080B3C031C24
:10123000042A031D1F292A08673C031C042A2B08C3
:10124000C5002A08C4008031F9228831C930D00095
:10125000AF30CF001F30CE007A30CD007A08D400F6
:101260007908D3007808D2007708D100803116239E
:1012700088318314CE30CB00A430CA002B30C90093
:101280008630C8007A08CF007908CE007808CD00F3
:101290007708CC008031B72188317708C000780802
:1012A000C1007908C2007A08C3002B08C5002A08CB
:1012B000C4008031F92288317708C4007808C5005D
:1012C0007908C6007A08C70083144708CB0046088F
:1012D000CA004508C9004408C8004830CF000130A2
:1012E000CE007130CD008830CC008031B7218831FC
:1012F0004308C7004208C6004108C5004008C400B2
:101300007A08CB007908CA007808C9007708C800B5
:1013100080318B2388317A08BB007908BA007808BD
:10132000B9007708B80083103008CB002F08CA0036
:101330002E08C9002D08C800BD30CF005230CE00A5
:101340003630CD007C30CC008031B7218831770831
:10135000C0007808C1007908C2007A08C300831071
:101360004308CB004208CA004108C9004008C80031
:101370003B08CF003A08CE003908CD003808CC0031
:101380008031B72188317A08B0007908AF00780839
:10139000AE007708AD0083103408CB003308CA00D4
:1013A0003208C9003108C800BD30CF005230CE002D
:1013B0003630CD007C30CC008031B72188317708C1
:1013C000C0007808C1007908C2007A08C300831001
:1013D0004308CB004208CA004108C9004008C800C1
:1013E0003B08CF003A08CE003908CD003808CC00C1
:1013F0008031B72188317A08BF007908BE007808AB
:10140000BD007708BC00172C2C08003C0318F62AF6
:101410002C08013C031CF62A2B08C5002A08C4002E
:101420008031F92288317708C0007808C100790836
:10143000C2007A08C300C5012C08C4008031F9221B
:1014400088317708C4007808C5007908C6007A0892
:10145000C700D0004608CF004508CE004408CD00A4
:10146000D4016030D3006A30D2008E30D100803198
:101470001623883183104308CB004208CA00410874
:10148000C9004008C8007A08CF007908CE00780863
:10149000CD007708CC008031B72188317708C000B3
:1014A0007808C1007908C2007A08C3008314430891
:1014B000CB004208CA004108C9004008C8001430E7
:1014C000CF00CE30CE003C30CD008830CC00803113
:1014D000B72188318830C7007730C6000630C50094
:1014E0008630C4007A08CB007908CA007808C900A1
:1014F0007708C80080318B2388317A08BB007908CF
:10150000BA007808B9007708B80083103008CB001B
:101510002F08CA002E08C9002D08C800BD30CF0012
:101520005230CE003630CD007C30CC008031B72137
:1015300088317708C0007808C1007908C2007A08AD
:10154000C30083104308CB004208CA004108C90009
:101550004008C8003B08CF003A08CE003908CD004B
:101560003808CC008031B72188317A08B00079087A
:10157000AF007808AE007708AD0083103408CB00C8
:101580003308CA003208C9003108C800BD30CF0096
:101590005230CE003630CD007C30CC008031B721C7
:1015A00088317708C0007808C1007908C2007A083D
:1015B000C30083104308CB004208CA004108C90099
:1015C0004008C8003B08CF003A08CE003908CD00DB
:1015D0003808CC008031B72188317A08BF007908FB
:1015E000BE007808BD007708BC00172C2C08013C11
:1015F0000318332B83103008CB002F08CA002E08A5
:10160000C9002D08C800BD30CF005230CE003630A2
:10161000CD007C30CC008031B72188317A08B00011
:101620007908AF007808AE007708AD008310340861
:10163000CB003308CA003208C9003108C800BD30E9
:10164000CF005230CE003630CD007C30CC0080311F
:10165000B72188317A08BF007908BE007808BD003C
:101660007708BC00172C2B08C5002A08C40080315D
:10167000F92288317930D0005D30CF003F30CE0084
:101680007630CD007A08D4007908D3007808D200EB
:101690007708D10080311623883183102330CB00A6
:1016A0000A30CA000630C9008530C8007A08CF0069
:1016B0007908CE007808CD007708CC008031B721BA
:1016C00088317708C0007808C1007908C2007A081C
:1016D000C3002B08C5002A08C4008031F9228831D4
:1016E0007708C4007808C5007908C6007A08C700E2
:1016F00083144708CB004608CA004508C9004408BF
:10170000C8007B30CF003430CE003C30CD00873075
:10171000CC008031B72188314308C7004208C60099
:101720004108C5004008C4007A08CB007908CA0007
:101730007808C9007708C80080318B2388317A087F
:10174000BB007908BA007808B9007708B8008310A0
:101750003008CB002F08CA002E08C9002D08C80089
:10176000BD30CF005230CE003630CD007C30CC00C2
:101770008031B72188317708C0007808C100790826
:10178000C2007A08C30083104308CB004208CA0095
:101790004108C9004008C8003B08CF003A08CE0005
:1017A0003908CD003808CC008031B72188317A085B
:1017B000B0007908AF007808AE007708AD0083105C
:1017C0003408CB003308CA003208C9003108C80009
:1017D000BD30CF005230CE003630CD007C30CC0052
:1017E0008031B72188317708C0007808C1007908B6
:1017F000C2007A08C30083104308CB004208CA0025
:101800004108C9004008C8003B08CF003A08CE0094
:101810003908CD003808CC008031B72188317A08EA
:10182000BF007908BE007808BD007708BC009A3078
:10183000C3009930C2001930C1007D30C0003F089C
:10184000C7003E08C6003D08C5003C08C400803102
:101850005524883103182E2C031D822C22000C11D4
:1018600021000C110F302000C1008031A5208831EB
:1018700022000C1521000C1114302000C100803111
:10188000A520883122000C1121000C110F302000FE
:10189000C1008031A520883122000C1521000C11D7
:1018A00014302000C1008031A520883122000C11A5
:1018B00021000C110F302000C1008031A52088319B
:1018C00022000C1521000C11831420003F08CB00CE
:1018D0003E08CA003D08C9003C08C8009A30CF0045
:1018E0009930CE001930CD007D30CC008031B72149
:1018F00088317A08B4007908B3007808B200770814
:10190000B100452DCD30C300CC30C2004C30C100F9
:101910007C30C0003F08C7003E08C6003D08C50037
:101920003C08C4008031552488310318992C031DCC
:10193000EE2C3F08C3003E08C2003D08C1003C0831
:10194000C0009A30C7009930C6001930C5007D30FC
:10195000C400803155248831031CEE2C22000C1168
:1019600021000C110F302000C1008031A5208831EA
:1019700022000C1521000C1114302000C100803110
:10198000A520883122000C1121000C110F302000FD
:10199000C1008031A520883122000C1521000C11D6
:1019A000831420003F08CB003E08CA003D08C90050
:1019B0003C08C800CD30CF00CC30CE004C30CD003C
:1019C0007C30CC008031B72188317A08B4007908A6
:1019D000B3007808B2007708B100452DCD30C300C0
:1019E000CC30C2004C30C1007B30C0003F08C70083
:1019F0003E08C6003D08C5003C08C400803155249F
:101A000088310318052D031D452D3F08C3003E08EE
:101A1000C2003D08C1003C08C000CD30C700CC303A
:101A2000C6004C30C5007C30C4008031552488315C
:101A3000031C452D22000C1121000C110F30200039
:101A4000C1008031A520883122000C1521000C1125
:101A5000831420003F08CB003E08CA003D08C9009F
:101A60003C08C800CD30CF00CC30CE004C30CD008B
:101A70007B30CC008031B72188317A08B4007908F6
:101A8000B3007808B2007708B100B501260B5E2DCF
:101A9000043084003008C3002F08C2002E08C100A3
:101AA0002D08C0000130C4008031FF2C88310A307D
:101AB000111E582D23009A002000A601C301C20167
:101AC0006130C1008830C0003008C7002F08C60050
:101AD0002E08C5002D08C400803155248831031C10
:101AE000782DA501A4019501B001AF01AE01AD01B2
:101AF000CD30C300CC30C2004C30C1007B30C000C0
:101B00003408C7003308C6003208C5003108C400D5
:101B100080315524883103188F2D031DC42D1430B6
:101B2000C1008031A520883122000C1121000C1148
:101B30000F302000C1008031A520883122000C1513
:101B400021000C1114302000C1008031A520883103
:101B500083143408CB003308CA003208C9003108A6
:101B6000C800CD30CF00CC30CE004C30CD007B3023
:101B7000CC008031B72188317A08B4007908B300ED
:101B80007808B2007708B1008030C00080311021A1
:101B900088314330CD0080315F2188313D30CD0028
:101BA00080315F2188312030CD0080315F21883144
:101BB000003084003708C1003608C0008031CF25CE
:101BC00088319F30230091000030920003140430CC
:101BD0002000C00080312D2E88312C08C000183024
:101BE000C1008031902E88316D30CD0080315F2171
:101BF00088316930CD0080315F2188316E30CD0071
:101C000080315F218831C030C0008031102188319F
:101C10000130C0002030CD0080315F218831C00B01
:101C20000A2E003084002B08C1002A08C000803131
:101C3000CF2588316D30CD0080315F218831733000
:101C4000CD0080315F2188312030CD0080315F218F
:101C50008831053084003008C3002F08C2002E08E8
:101C6000C1002D08C0000130C4008031C62E88316B
:101C70004C30CD0080315F2188310230C000FA3015
:101C8000C1008031A5208831C00B3F2E7F28472E10
:020000040001F9
:04000E00E209FF0AFA
:00000001FF
;PIC16F1827
;CRC=6A69  CREATED="13-1-17 16:21"
