:0600000000008831002819
:0800080083018A012000770842
:10001000A0007808A1007908A2007A08A3000B1EAE
:1000200013288B182E288B1E17280B1930288501B2
:1000300091308400001D1E2811193228850191304D
:100040008400801E2528911A34282008F7002108F2
:10005000F8002208F9002308FA0009008031652819
:100060008031362880313C2880317728A40A031952
:10007000A50A0B11803125282808EA3C031C4A28D0
:10008000031D462827085F3C031C4A28A70A0319BA
:10009000A80A62282908023C031C61282808E93CB8
:1000A00003186128FF3A031D592827085F3C0318ED
:1000B0006128A90AA801A701181097019601181430
:1000C000622818101111803125280130B500280848
:1000D000AB002708AA002908AC00A801A701A901C4
:1000E00018109701960118148B1080312528911E45
:1000F0007728230019082000DA005A08613C031D04
:1001000084280130A60095285A08623C031D9528D2
:10011000A501A401A801A701A901AB01AA01AC0195
:10012000B001AF01AE01AD019501911280312528DA
:10013000F232733A61397400C31EA012353675105D
:100140002010A012B13AED346E002030850021302D
:10015000840000080319BA280330F800F701F70BF0
:10016000AF28F80BAE283C30F700F70BB528B828BD
:10017000800BAC2808004F088039031DC5282200D9
:100180000D1321000D13C928200022000D17210096
:100190000D1320004F084039031DD42822008D1371
:1001A00021008D13D828200022008D1721008D13E7
:1001B00020004F082039031DE32822008D11210063
:1001C0008D11E728200022008D1521008D112000BF
:1001D0004F081039031DF22822008C1021008C10CA
:1001E000F628200022008C1421008C102000D0085A
:1001F000031D002921000D1222000D1604292000E4
:1002000021000D1222000D12000021008D1022008D
:100210008D140A2921008D1022008D102000080065
:100220004008CF000130D000BB20400EC100F030AC
:10023000C1054108CF000130D000BB200230C10011
:10024000A5200800053066000F30C100A520303021
:10025000CF000130D000BB200530C100A5203030D8
:10026000CF000130D000BB200130C100A5203030CC
:10027000CF000130D000BB200130C100A5202030CC
:10028000CF000130D000BB200130C100A5202E30AE
:10029000C00010210830C00010210D30C000102116
:1002A0000630C00010210230C000102188313128F2
:1002B0000130C00010210F30C100A52008004D08FA
:1002C000CF00D001BB204D0ECE00F030CE054E0841
:1002D000CF00D001BB202930F700F70B6D290000BB
:1002E00008000B08C0008B1323009517151400009D
:1002F000000013087F390319B2292000C100230030
:1003000011082000C200230012082000C300410889
:10031000CD005F2142082300910020004308230004
:1003200092009517151400000000130D140D7F396D
:100330000319B2292000C100230011082000C200C7
:10034000230012082000C3004108CD005F214208AD
:10035000230091002000430823009200910A031912
:10036000920A75292000C01B8B17883174288030B1
:100370008318C906CE01CF014508CD004908CD0636
:1003800044080319AA2ACC00F70048080319B32A25
:10039000CC0203194E2A031C0B2A4908D200D2179B
:1003A0004A08D1004B08D000CF010310D20CD10C69
:1003B000D00CCF0CCC0BD429CD1FE1294E14C72A69
:1003C0004E104C104E162030850027308400DC2A59
:1003D0004E12CD1BF5294C1C002AD20CD10CD00C8E
:1003E000CF0CF70A0319C22A002AD21B032A0310D2
:1003F000CF0DD00DD10DD20DF7030319C22AF52967
:100400004E176F2A4E134508CD00CD1F092AD2176B
:10041000BB2AD213BB2A4808CC00F7004408CC0200
:100420004508D200D2174608D1004708D000CF01B6
:100430000310D20CD10CD00CCF0CCC0B172ACD1F33
:10044000242ACE14C72ACE104C10CE162030850098
:100450002B308400DC2ACE12CD1B382A4C1C432AB8
:10046000D20CD10CD00CCF0CF70A0319C22A432AA4
:10047000D21B462A0310CF0DD00DD10DD20DF7039C
:100480000319C22A382ACE176F2ACE134908CD0085
:10049000CD1F4C2AD217BB2AD213BB2A4908D2003F
:1004A000D2174A08D1004B08D000CD1F5B2AD213C7
:1004B0004E15C72A4E11CF014C1020308500273031
:1004C0008400DC2ACD1B852A4508CD004C1C6F2AF0
:1004D000D20CD10CD00CCF0CF70A0319C22ACF1FB3
:1004E000802AD00A031D802AD10A031D802AD20A3D
:1004F000031D802AD20CD10CD00CF70A0319C22A92
:100500004E1B022ACE1B452AA42A8030D206D21FB7
:100510008D2AC72A4908CD009A2A4508CD00D2085D
:10052000031D9A2AD108031D9A2AD008031D9A2A6E
:10053000F701BB2AD21BA42A0310CF0DD00DD10D79
:10054000D20DF70B9A2AC22ACD1FA82AD217BB2A8E
:10055000D213BB2A4808F7004908D2004A08D10044
:100560004B08D000BB2A4408F7004508D2004608D3
:10057000D1004708D0005208F8005108F90050088F
:10058000FA00F82AF701F801F901FA01F82ACF0177
:10059000D009D109D209CF09CF0A031DD52AD00A23
:1005A000031DD52AD10A0319D20A4E18E029CE1804
:1005B000232A4E195A2A8A2A0008D007031CE62A41
:1005C000D10A031DE62AD20A03194C141100D107DF
:1005D000031CED2AD20A03194C141100801F803A23
:1005E000D20703184C144E1AE829CE1A2B2A622A75
:1005F00008008E30F7004108F8004008F900FA01C1
:10060000F808031D0D2B7908F800F9010830F702EE
:10061000F808031D0D2BF701152B0310F81B142BE5
:10062000F90DF80DF7030D2BF81388315529400803
:100630000319DC2BCC0044080319DC2BCC02031C6F
:10064000262B7F30CC070318DC2B2C2B8130CC02DF
:10065000031CDC2B0319DC2B4C08F700F801F90113
:10066000FA01CB014108CA00CA174208C900430871
:10067000C8001930CC004708C80203184F2B0130BE
:10068000C90203184F2BCA0203184F2BCB020318C1
:100690004F2BCB0ACA0AC90A4708C807812B46084C
:1006A000C90203186A2B0130CA0203186A2BCB0255
:1006B00003186A2BCB0ACA0A4608C9074708C807A5
:1006C000031C812BC90A031D812BCA0A031D812B20
:1006D000CB0A812B45088038CA020318802B0130D1
:1006E000CB020318802BCB0A45088038CA0746087E
:1006F000C907031C5E2BCA0A031D5E2BCB0A5E2BA7
:100700007A14CC0B842B8F2B0310C80DC90DCA0D86
:10071000CB0D0310FA0DF90DF80DCD0D3B2B4D1C33
:10072000972B0310F80CF90CFA0CCD0C9A2BF7034D
:100730000319DC2BCD1BC32B0310C80DC90DCA0D2B
:10074000CB0D4708C8020318AF2B0130C9020318AC
:10075000AF2BCA020318AF2BCB02031CD22B4608C7
:10076000C9020318BA2B0130CA020318BA2BCB02F4
:10077000031CD22B45088038CA020318C32B013052
:10078000CB02031CD22BFA0A031DD22BF90A031D3C
:10079000D22BF80A031DD22BF70A0319DC2BF80C15
:1007A000F90CFA0C4108CC004508CC06CC1FDA2B1A
:1007B000F817E02BF813E02BF701F801F901FA0123
:1007C000883184294108C8004508C806C81FED2B98
:1007D00003110310C11B0314202C4108C800440856
:1007E000C9004008C9020319FB2BC81F202C0308AD
:1007F000013A8300202C4508C9004108C9020319A9
:10080000072CC81F202C0308013A8300202C46081F
:10081000C9004208C9020319132CC81F202C030861
:10082000013A8300202C4708C9004308C902031974
:100830001F2CC81F202C0308013A8300202C031012
:1008400008004D080319912CD50051080319912C6B
:10085000D5070318322C7F30D502031C912C0319C5
:10086000912C362C8130D5070318912C5508F700B0
:10087000F801F901FA014E08D900D9174F08D8003C
:100880005008D7001830D500D601571C5F2C5408EB
:10089000FA07031C512CF90A031D512CF80A0319FD
:1008A000D6175308F907031C582CF80A0319D61752
:1008B0005208CF00CF174F08F8070318D617D60DE8
:1008C000F80CF90CFA0CD90CD80CD70C0310D50B7A
:1008D000442C0130F7070318912CF81B762CD90D06
:1008E000FA0DF90DF80DF7030319912CD91F872C78
:1008F000FA0A031D872CF90A031D872CF80A031D29
:10090000872CF80CF90CFA0CF70A0319912C4E08F5
:10091000D6005208D606D61F8F2CF817952CF81340
:10092000952CF701F801F901FA0108004D08B63CD1
:10093000CD00FA014E08D100CE170310CE0CCF0C1B
:10094000D00CFA0CF90CF80CF70CCD0B9D2CD11F28
:10095000B42CF709F809F909FA09F70A0319F80A92
:100960000319F90A0319FA0A08008318BA2C850139
:1009700055308400F701F801F901FA01D501D601DB
:10098000D701D80154085304520451040319F82C18
:100990002030D9000310CD0DCE0DCF0DD00DD50DCB
:1009A000D60DD70DD80D54085802031DE12C53085D
:1009B0005702031DE12C52085602031DE12C510879
:1009C0005502031CF22C5108D5025208031C520F89
:1009D000D6025308031C530FD7025408031C540FAC
:1009E000D8020314F70DF80DF90DFA0DD90BCA2C26
:1009F000550880005608813F5708823F5808833FBA
:100A000008000408C5004408C7000319202D430846
:100A1000D0004208CF004108CE004008CD00D401EC
:100A2000D3012030D2008230D10021247A08C300C3
:100A30007908C2007808C1007708C000C70B072DED
:100A40004308D0004208CF004108CE004008CD0046
:100A500096247A08C3007908C2007808C100770894
:100A6000C000C31F402DC503C516C009C109C20976
:100A7000C309C00A0319C10A0319C20A0319C30A28
:100A80003B30CC009A30CB00CA30CA00C9010A30D2
:100A9000C70044080319C50A831420308500840068
:100AA0004308D0004208CF004108CE004008CD00E6
:100AB0004C08D4004B08D3004A08D2004908D100A2
:100AC000B5247808F708031D782D440A4702031956
:100AD000782D450803197A2D0F3947020319722D15
:100AE0000318B62DC51BB62D451B7A2D2030AF2D12
:100AF0002030C505C51E8B2DC5124408031DC50336
:100B00007708C5002D30111E832D23009A00200088
:100B10004508F700C50144084702031D9C2D7708CE
:100B2000C5002E30111E922D23009A00200045088A
:100B3000F7002030C50500303030C51EAF2DC5127E
:100B40004408031DC5037708C5002D30111EA62DCE
:100B500023009A0020004508F700C5013030F70750
:100B60007708111EB12D23009A00200083104C0835
:100B7000D0004B08CF004A08CE004908CD00D40170
:100B8000D301D2010A30D100B5247A08CC0079080B
:100B9000CB007808CA007708C900C70B4C2D8831F4
:100BA0003C2B0508C8000408C700410EF038C300FC
:100BB000C307E23EC400323EC60041080F39C407F5
:100BC000C407C607E93EC500C507C507400E0F3973
:100BD000C507C607C50DC60DC609C60D40080F39A5
:100BE000C607C30D0730C2000A30C607C503031C81
:100BF000F52DC507C403031CF92DC407C303031C4B
:100C0000FD2DC307C203031C012E85014230840061
:100C10000730470547138407463004020319471776
:100C20000008F700031D1C2E471B1C2E471A2B2EF5
:100C3000C7191C2E20301F2EC71547123030F7075A
:100C40000508C1000408C0007708CD005F214108F5
:100C50008500400884000131471F0C2E08000B0856
:100C6000C1008B1323009517151400000000031812
:100C70005B2E13087F392000C200230011082000DA
:100C8000C300230012082000C4004208CD005F21E9
:100C90004308230091002000440823009200951788
:100CA0001514000000002000C00B572E592E230001
:100CB0005B2E792E2300130D140D7F392000C20006
:100CC000230011082000C300230012082000C400E4
:100CD0004208CD005F214308230091002000440812
:100CE00023009200910A0319920A03102000C00BFE
:100CF000322EC11B8B178831D22B4308F8014202D8
:100D00000318852E4208F700912EF7010830C40021
:100D1000C20DF70D430877020318F700F80DC40B56
:100D2000882E080078084008C2006430C3007D2681
:100D30007708C00078083030031DA52EC11CAC2EEA
:100D4000C119AC2E411A2030A82EC11141124114F4
:100D5000F8077808CD005F214008C2000A30C300C0
:100D60007D267708C00078083030031DBD2EC119DC
:100D7000C12E411CC12E411A2030F8077808CD0041
:100D80005F213030C0074008CD005F218831D92B6A
:100D90000408C5004408C7000319E72E4308D00023
:100DA0004208CF004108CE004008CD00D401D30155
:100DB0002030D2008230D10021247A08C300790883
:100DC000C2007808C1007708C000C70BCE2E4308C8
:100DD000D0004208CF004108CE004008CD00962444
:100DE0007A08C3007908C2007808C1007708C000FB
:100DF000C31F072FC503C516C009C109C209C3090E
:100E0000C00A0319C10A0319C20A0319C30A3B30F5
:100E1000CC009A30CB00CA30CA00C9010A30C700E2
:100E200044080319C50A8314203085008400430850
:100E3000D0004208CF004108CE004008CD004C0849
:100E4000D4004B08D3004A08D2004908D100B52489
:100E50007808F708031D3F2F440A470203193F2F64
:100E600045080319412F0F3947020319392F031879
:100E7000712FC51B712F451B412F20306D2F203046
:100E8000C505C51E4F2FC5124408031DC5037708AD
:100E9000C5002D30CD005F214508F700C50144088D
:100EA0004702031D5D2F7708C5002E30CD005F215E
:100EB0004508F7002030C50500303030C51E6D2FC5
:100EC000C5124408031DC5037708C5002D30CD00A9
:100ED0005F214508F700C5013030F7077708CD00DE
:100EE0005F2183104C08D0004B08CF004A08CE0089
:100EF0004908CD00D401D301D2010A30D100B52474
:100F00007A08CC007908CB007808CA007708C900B5
:080F1000C70B132F88311D2CC3
:10100000850184011F30830522001E149D172030A6
:1010100023009B00A6309E0090309D002000A80178
:10102000A701A901AB01AA01AC01B001AF01AE015A
:10103000AD01B401B301B201B10123008C018D01F6
:10104000220092019101940193012000A401A501C5
:10105000A601B50122000C1521000C1180312000E1
:10106000222988310C30C000803110218831803134
:101070005821883121001508C739283895002000EB
:1010800095010530980099011810970196012200EA
:101090001D109D101D1121008D1122008D110B308E
:1010A00025009300940195011E109E1001309600BA
:1010B00009309200C43091002100151717309700B5
:1010C0008B1611150B169116C0308B042000A5014C
:1010D000A4018031582188319830230091000030DC
:1010E000920080312000712988310430C000FA302C
:1010F000C1008031A5208831C00B77281814640006
:101100002408C100C0011508FA014007B6007A089A
:10111000413DB700350B2C2BAC08031D12292B08C1
:10112000073C031C1229031D99282A08CF3C031CE5
:1011300012292530BB000630BA000130B9007B30DF
:10114000B80083103008C7002F08C6002E08C5005D
:101150002D08C400EC30CB005130CA003830C90033
:101160007C30C8008031B72188317708C00078080A
:10117000C1007908C2007A08C30083104308C70081
:101180004208C6004108C5004008C4003B08CB0027
:101190003A08CA003908C9003808C8008031B721A8
:1011A00088317A08B0007908AF007808AE00770877
:1011B000AD0083103408C7003308C6003208C500EC
:1011C0003108C400EC30CB005130CA003830C900BF
:1011D0007C30C8008031B72188317708C00078089A
:1011E000C1007908C2007A08C30083104308C70011
:1011F0004208C6004108C5004008C4003B08CB00B7
:101200003A08CA003908C9003808C8008031B72137
:1012100088317A08BF007908BE007808BD007708D9
:10122000BC00FD292C08013C03184F29831030080D
:10123000C7002F08C6002E08C5002D08C400EC30DA
:10124000CB005130CA003830C9007C30C800803132
:10125000B72188317A08B0007908AF007808AE006D
:101260007708AD0083103408C7003308C600320881
:10127000C5003108C400EC30CB005130CA00383012
:10128000C9007C30C8008031B72188317A08BF009E
:101290007908BE007808BD007708BC00FD292B083E
:1012A000C1002A08C0008031F92A88317708C000BF
:1012B0007808C1007908C2007A08C3008314430883
:1012C000C7004208C6004108C5004008C4003330CA
:1012D000CB007330CA000130C9008830C8008031AB
:1012E000B72188317330C3006830C2003A30C10082
:1012F0008530C0007A08C7007908C6007808C500A4
:101300007708C4008031172B88317A08BB00790830
:10131000BA007808B9007708B80083103008C70011
:101320002F08C6002E08C5002D08C400EC30CB00E5
:101330005130CA003830C9007C30C8008031B72134
:1013400088317708C0007808C1007908C2007A089F
:10135000C30083104308C7004208C6004108C50007
:101360004008C4003B08CB003A08CA003908C9004D
:101370003808C8008031B72188317A08B000790870
:10138000AF007808AE007708AD0083103408C700BE
:101390003308C6003208C5003108C400EC30CB0069
:1013A0005130CA003830C9007C30C8008031B721C4
:1013B00088317708C0007808C1007908C2007A082F
:1013C000C30083104308C7004208C6004108C50097
:1013D0004008C4003B08CB003A08CA003908C900DD
:1013E0003808C8008031B72188317A08BF007908F1
:1013F000BE007808BD007708BC009A30C300993061
:10140000C2001930C1007D30C0003F08C7003E084F
:10141000C6003D08C5003C08C4008031E223883185
:101420000318142A031D682A22000C1121000C1134
:101430000F302000C1008031A520883122000C151A
:1014400021000C1114302000C1008031A52088310A
:1014500022000C1121000C110F302000C10080313E
:10146000A520883122000C1521000C111430200019
:10147000C1008031A520883122000C1121000C11FF
:101480000F302000C1008031A520883122000C15CA
:1014900021000C11831420003F08C7003E08C6003D
:1014A0003D08C5003C08C4009A30CB009930CA0002
:1014B0001930C9007D30C8008031B72188317A08E1
:1014C000B4007908B3007808B2007708B1002B2B7C
:1014D000CD30C300CC30C2004C30C1007C30C000E5
:1014E0003F08C7003E08C6003D08C5003C08C400D0
:1014F0008031E223883103187F2A031DD42A3F0854
:10150000C3003E08C2003D08C1003C08C0009A303C
:10151000C7009930C6001930C5007D30C400803145
:10152000E2238831031CD42A22000C1121000C1163
:101530000F302000C1008031A520883122000C1519
:1015400021000C1114302000C1008031A520883109
:1015500022000C1121000C110F302000C10080313D
:10156000A520883122000C1521000C1183142000C5
:101570003F08C7003E08C6003D08C5003C08C4003F
:10158000CD30CB00CC30CA004C30C9007C30C80014
:101590008031B72188317A08B4007908B30078081F
:1015A000B2007708B1002B2BCD30C300CC30C20085
:1015B0004C30C1007B30C0003F08C7003E08C60069
:1015C0003D08C5003C08C4008031E223883103187F
:1015D000EB2A031D2B2B3F08C3003E08C2003D0829
:1015E000C1003C08C000CD30C700CC30C6004C3034
:1015F000C5007C30C4008031E2238831031C2B2BD2
:1016000022000C1121000C110F302000C10080318C
:10161000A520883122000C1521000C118314200014
:101620003F08C7003E08C6003D08C5003C08C4008E
:10163000CD30CB00CC30CA004C30C9007B30C80064
:101640008031B72188317A08B4007908B30078086E
:10165000B2007708B100B501260B442B043084009A
:101660003008C3002F08C2002E08C1002D08C0009A
:101670000130C4008031012D88310A30111E3E2B0B
:1016800023009A002000A601C301C2016130C100FD
:101690008830C0003008C7002F08C6002E08C500DB
:1016A0002D08C4008031E2238831031C5E2BA50184
:1016B000A4019501B001AF01AE01AD01CD30C30071
:1016C000CC30C2004C30C1007B30C0003408C700B1
:1016D0003308C6003208C5003108C4008031E22357
:1016E00088310318752B031DAA2B1430C1008031DB
:1016F000A520883122000C1121000C110F30200090
:10170000C1008031A520883122000C1521000C1168
:1017100014302000C1008031A520883183143408A2
:10172000C7003308C6003208C5003108C400CD30F8
:10173000CB00CC30CA004C30C9007B30C8008031AF
:10174000B72188317A08B4007908B3007808B2006C
:101750007708B1008030C0008031102188314330DB
:10176000CD0080315F2188313D30CD0080315F2157
:1017700088312030CD0080315F21883100308400F5
:101780003708C1003608C0008031D12588319F302C
:101790002300910000309200031404302000C000A8
:1017A00080312F2E88312C08C0001830C1008031C4
:1017B000922E88316D30CD0080315F2188316930C3
:1017C000CD0080315F2188316E30CD0080315F21C6
:1017D0008831C030C0008031102188310130C00014
:1017E0002030CD0080315F218831C00BF02B0030DC
:1017F00084002B08C1002A08C0008031D12588311F
:101800006D30CD0080315F2188317330CD00803163
:101810005F2188312030CD0080315F218831053053
:1018200084003008C3002F08C2002E08C1002D0814
:10183000C0000130C4008031C82E88314C30CD004A
:1018400080315F2188310230C000FA30C100803120
:0C185000A5208831C00B252C7F282D2CF2
:020000040001F9
:04000E00E209FF0AFA
:00000001FF
;PIC16F1827
;CRC=12B6  CREATED="31-1-17 23:59"
